:020000040800F2
:100000000028002079120008750F00087B0F0008F7
:10001000810F0008870F00088D0F00080000000006
:10002000000000000000000000000000930F000826
:100030009F0F000800000000AB0F0008B70F00087A
:10004000C1120008C1120008C1120008C112000844
:10005000C1120008C1120008C1120008C112000834
:10006000C1120008C1120008C1120008C112000824
:10007000C1120008C1120008C1120008C112000814
:10008000C1120008C1120008C1120008C112000804
:10009000C1120008C1120008C1120008C1120008F4
:1000A000C1120008C1120008C1120008C1120008E4
:1000B000C50F0008C112000800000000C1120008AE
:1000C000C11200080000000000000000C11200087A
:1000D00000000000C1120008C1120008000000006A
:1000E000C1120008C1120008C1120008000000007F
:1000F0000000000000000000000000000000000000
:0C01000000000000000000005FF808F1A3
:10010C0010B5054C237833B9044B13B10448AFF345
:10011C0000800123237010BD34000020000000007B
:10012C00C028000808B5034B1BB103490348AFF3C3
:10013C00008008BD0000000038000020C028000826
:10014C0080B483B000AF7860094A7B6852F82330E2
:10015C00012B06D1064A7B68002142F823100123AB
:10016C0000E0002318460C37BD4680BC704700BF2A
:10017C00C000002080B483B000AF7860044A7B6874
:10018C00012142F8231000BF0C37BD4680BC7047DC
:10019C00C000002080B582B000AF00237B6076E009
:1001AC003F4A7B6852F823203E497B6841F8232064
:1001BC003D4A7B6852F8232039497B6841F823205B
:1001CC003A4A7B6852F8232039497B6831F813305E
:1001DC001946104601F05AFB03461946324A7B6811
:1001EC0042F823102F4A7B6852F823202C497B6855
:1001FC0051F823309A4247D1294A7B6852F8232080
:10020C0029497B6851F823309A423DD1294A7B68B1
:10021C0052F8232024497B6851F823309A4216D097
:10022C00214A7B6852F8232022497B6841F823201D
:10023C001D4A7B6852F82330002B25D17868FFF7D4
:10024C0099FF1D4A7B68C82142F823101CE01A4A0A
:10025C007B6852F823305A1E17497B6841F82320DB
:10026C00154A7B6852F82330002B0DD10E4A7B685F
:10027C0052F82330002B02D17868FFF77BFF0E4A2F
:10028C007B68C82142F823107B6801337B607B6854
:10029C00022B85DD00BF00BF0837BD4680BD00BF07
:1002AC00B4000020A8000020D8000020000000208E
:1002BC000C0000209C000020CC00002080B500AF7A
:1002CC0000220221044801F0F8FA0122042102481C
:1002DC0001F0F3FA00BF80BD0008014080B500AF0B
:1002EC0001220221044801F0E8FA0022042102480C
:1002FC0001F0E3FA00BF80BD0008014080B500AFFB
:10030C0000220821044801F0D8FA012210210248E9
:10031C0001F0D3FA00BF80BD0008014080B500AFEA
:10032C0001220821044801F0C8FA002210210248D9
:10033C0001F0C3FA00BF80BD0008014080B582B057
:10034C0000AF78607B68002BC0F28A807B68092B39
:10035C0000F3868001220121434801F0AEFA01220C
:10036C000221414801F0A9FA012204213E4801F082
:10037C00A4FA012208213C4801F09FFA0122102125
:10038C00394801F09AFA01222021374801F095FAF8
:10039C0001224021344801F090FA7B68012B07D0F0
:1003AC007B68042B04D0002201212F4801F085FA30
:1003BC007B68052B07D07B68062B04D0002202211A
:1003CC00294801F07AFA7B68022B04D00022042120
:1003DC00254801F072FA7B68012B0AD07B68042B4C
:1003EC0007D07B68072B04D0002208211E4801F09F
:1003FC0064FA7B68012B13D07B68032B10D07B68CD
:10040C00042B0DD07B68052B0AD07B68072B07D0FB
:10041C007B68092B04D000221021134801F04DFAFF
:10042C007B68012B0DD07B68022B0AD07B68032BD9
:10043C0007D07B68072B04D0002220210A4801F04A
:10044C003CFA7B68012B0CD07B68072B09D07B68AE
:10045C00002B06D000224021034801F02EFA00E0C8
:10046C0000BF0837BD4680BD000C014080B582B08E
:10047C0000AF78607B68002BC0F296807B68092BFC
:10048C0000F3928001228021494801F016FA0122E2
:10049C004FF48071464801F010FA01224FF40071BC
:1004AC00434801F00AFA01224FF48061404801F000
:1004BC0004FA01224FF400613D4801F0FEF90122DB
:1004CC004FF480513A4801F0F8F901224FF40051F1
:1004DC00374801F0F2F97B68012B07D07B68042BBD
:1004EC0004D000228021324801F0E7F97B68052B0B
:1004FC0008D07B68062B05D000224FF480712C4865
:10050C0001F0DBF97B68022B05D000224FF400715F
:10051C00274801F0D2F97B68012B0BD07B68042BA8
:10052C0008D07B68072B05D000224FF4806120484F
:10053C0001F0C3F97B68012B14D07B68032B11D01D
:10054C007B68042B0ED07B68052B0BD07B68072BAC
:10055C0008D07B68092B05D000224FF400611448A9
:10056C0001F0ABF97B68012B0ED07B68022B0BD012
:10057C007B68032B08D07B68072B05D000224FF437
:10058C0080510B4801F099F97B68012B0DD07B68E9
:10059C00072B0AD07B68002B07D000224FF40051A8
:1005AC00034801F08AF900E000BF0837BD4680BD62
:1005BC00000C014080B584B000AF78607B68184AAD
:1005CC0082FB03129210DB17D31AFB607A68144B70
:1005DC0083FB02139910D317C91A0B469B000B44CB
:1005EC005B00D31ABB600F4B1B68002B02D0012B96
:1005FC0009D011E0FFF762FEF868FFF79FFE094B88
:10060C0001221A6008E0FFF769FEB868FFF796FE52
:10061C00044B00221A6000BF00BF1037BD4680BDDE
:10062C00676666665000002080B584B000AF7860C5
:10063C007B68184A82FB03129210DB17D31AFB60FB
:10064C007A68144B83FB02139910D317C91A0B4603
:10065C009B000B445B00D31ABB600F4B1B68022B37
:10066C0002D0032B09D011E0FFF748FEF868FFF722
:10067C00FDFE094B03221A6008E0FFF74FFEB86835
:10068C00FFF7F4FE044B02221A6000BF00BF1037C4
:10069C00BD4680BD676666661400002080B500AF5D
:1006AC007A4B1B78042B00F2C08001A252F823F085
:1006BC00D10600080F070008570700089D0700081F
:1006CC00E3070008002000F087FC022000F0CCFCBF
:1006DC006F4B1B686F4A13606F4B1B686F4A13603C
:1006EC006D4B1B684FF47A7202FB03F3184600F053
:1006FC0043FB4FF47A7000F05BFB644B01221A70E1
:10070C0093E0674B1B68002B00F08880002000F002
:10071C0063FC022000F0A8FC5D4B1B685D4A136073
:10072C005D4B1B685D4A1360584B02221A705A4B82
:10073C001B684FF47A7202FB03F3184600F01CFBA3
:10074C004FF47A7000F034FB68E0554B1B68002BBB
:10075C0066D0002000F040FC012000F085FC514BDD
:10076C001B684C4A13604F4B1B684C4A1360474B39
:10077C0003221A704B4B1B684FF47A7202FB03F383
:10078C00184600F0F9FA4FF47A7000F011FB47E0CC
:10079C00434B1B68002B45D0022000F01DFC0020B1
:1007AC0000F062FC3C4B1B683A4A1360384B1B68E8
:1007BC003A4A1360354B04221A70374B1B684FF4BE
:1007CC007A7202FB03F3184600F0D6FA4FF47A70F3
:1007DC0000F0EEFA26E0324B1B68002B24D00120EF
:1007EC0000F0FAFB002000F03FFC2E4B1B68294A5E
:1007FC0013602C4B1B68294A1360244B01221A707E
:10080C00284B1B684FF47A7202FB03F3184600F076
:10081C00B3FA4FF47A7000F0CBFA05E000BF04E0B5
:10082C0000BF02E000BF00E000BF1F4B1B68002BA5
:10083C000FD01D4B00221A60164B1B681846FFF791
:10084C00B9FE164B1B681846FFF7EEFE642000F04D
:10085C0077FA164B1B68002B15D00E4B1B68002B20
:10086C0004DD0C4B1B68013B0A4A13600B4B1B68E5
:10087C00002B04DD094B1B68013B084A13604FF445
:10088C007A7000F095FA00BF80BD00BF54000020C4
:10089C001800002058000020200000205C000020E0
:1008AC00780000201C000020740000207C00002038
:1008BC0080B500AF0020FFF743FC0346002B20D08F
:1008CC006A4B1B680133694A1360684B1B68042B25
:1008DC0017DD664B01221A60654B00221A70654BBE
:1008EC001A68654B1B681A44644B1B689A4208D003
:1008FC00624B07221A605F4B02221A605E4B052284
:10090C001A605A4B1B68013B032B7CD801A252F88E
:10091C0023F000BF310900084909000889090008C3
:10092C00C9090008FFF7BAFE554B00221A60554B57
:10093C0000221A60544B00221A6064E0002000F080
:10094C00E3FB0120FFF7FCFB0346002B04D04C4BD0
:10095C001B6801334A4A1360494B1B68632B02DD49
:10096C00474B01221A600220FFF7EAFB0346002BDB
:10097C0044D0434B1B68414A13603FE0012000F018
:10098C00C3FB0120FFF7DCFB0346002B04D03D4BDF
:10099C001B6801333B4A13603A4B1B68632B02DD27
:1009AC00384B01221A600220FFF7CAFB0346002BCA
:1009BC0026D0344B1B682F4A136021E0022000F034
:1009CC00A3FB0120FFF7BCFB0346002B04D02E4BEE
:1009DC001B6801332C4A13602B4B1B68632B02DD05
:1009EC00294B01221A600220FFF7AAFB0346002BB9
:1009FC0008D0254B1B68204A136003E000BF02E0BF
:100A0C0000BF00E000BF214B1B68002B2BD01F4BFD
:100A1C0000221A60154B1B68012B21D0134B1B684D
:100A2C00042B12D0042B16DC022B02D0032B06D085
:100A3C0011E0134B1B681846FFF7BCFD0BE0114B84
:100A4C001B681846FFF7B6FD05E00F4B1B681846F0
:100A5C00FFF7B0FD00BF054B1B681846FFF7E4FD20
:100A6C00642000F06DF900BF80BD00BF24000020A1
:100A7C00540000201C000020200000201800002042
:100A8C00600000206400002068000020740000203A
:100A9C0080B500AF00F010FC00F01AF800F0A0F8E0
:100AAC0000F052F8094801F04DFB4FF4FA7000F0D9
:100ABC002BF9642000F044F9642000F05DF94FF448
:100ACC007A7000F075F9FFF7F3FEFCE7E400002004
:100ADC0080B590B000AF07F118032822002118460A
:100AEC0001F0E0FE3B1D00221A605A609A60DA6049
:100AFC001A610223BB610123BB621023FB6200233A
:100B0C007B6307F11803184600F0F0FE0346002B38
:100B1C0001D000F0F4F80F237B600023BB600023AE
:100B2C00FB6000233B6100237B613B1D00211846C9
:100B3C0001F05CF90346002B01D000F0E0F800BF97
:100B4C004037BD4680BD000080B586B000AF07F1D0
:100B5C00080300221A605A609A60DA603B46002251
:100B6C001A605A601D4B4FF080421A601B4B41F6C5
:100B7C003F725A60194B00229A60184B0922DA60B6
:100B8C00164B00221A61154B00229A61134801F092
:100B9C0089FA0346002B01D000F0B1F84FF48053D2
:100BAC00BB6007F1080319460C4801F007FC03462B
:100BBC00002B01D000F0A3F800233B6000237B60E6
:100BCC003B461946054801F0DFFD0346002B01D0DA
:100BDC0000F095F800BF1837BD4680BDE40000203A
:100BEC0080B588B000AF07F1100300221A605A607C
:100BFC009A60DA60354B9B69344A43F01003936179
:100C0C00324B9B6903F01003FB60FB682F4B9B6915
:100C1C002E4A43F0040393612C4B9B6903F00403AD
:100C2C00BB60BB68294B9B69284A43F0080393615E
:100C3C00264B9B6903F008037B607B68002240F223
:100C4C00FE71234800F039FE002243F6FF71214863
:100C5C0000F033FE4FF400533B6100237B61012312
:100C6C00BB6107F1100319461B4800F095FC40F2DC
:100C7C00FE733B6101237B610023BB610223FB619B
:100C8C0007F110031946124800F086FC43F6FF7377
:100C9C003B6101237B610023BB610223FB6107F1F4
:100CAC00100319460B4800F077FC4FF440533B619E
:100CBC0000237B610123BB6107F110031946044833
:100CCC0000F06AFC00BF2037BD4680BD001002401A
:100CDC0000080140000C01400010014080B582B0BA
:100CEC0000AF78607B681B68B3F1804F03D100F0D4
:100CFC007BF8FFF74FFA00BF0837BD4680BD80B4C4
:100D0C0000AF72B600BFFEE780B483B000AF78606E
:100D1C007B68084A82FB03129210DB17D31A064A2F
:100D2C001360064B00221A6000BF0C37BD4680BC16
:100D3C00704700BF67666666840000207000002064
:100D4C0080B483B000AF78607B68084A82FB0312E2
:100D5C009210DB17D31A064A1360064B00221A6056
:100D6C0000BF0C37BD4680BC704700BF6766666627
:100D7C00880000207400002080B483B000AF78603D
:100D8C007B68084A82FB03129210DB17D31A064ABF
:100D9C001360064B00221A6000BF0C37BD4680BCA6
:100DAC00704700BF676666668C00002078000020E4
:100DBC0080B483B000AF78607B68084A82FB031272
:100DCC009210DB17D31A064A1360064B00221A60E6
:100DDC0000BF0C37BD4680BC704700BF67666666B7
:100DEC00900000207C00002080B400AF294B1B68D1
:100DFC00002B0BDD274B1B68013B264A1360254B50
:100E0C001B68002B02DC244B01221A60234B1B684D
:100E1C00002B0BDD214B1B68013B204A13601F4B41
:100E2C001B68002B02DC1E4B01221A601D4B1B6839
:100E3C00002B0BDD1B4B1B68013B1A4A1360194B33
:100E4C001B68002B02DC184B01221A60174B1B6825
:100E5C00002B0BDD154B1B68013B144A1360134B25
:100E6C001B68002B02DC124B01221A60114B1B6811
:100E7C00002B0BDD0F4B1B68013B0E4A13600D4B17
:100E8C001B68002B02DC0C4B01221A6000BFBD4614
:100E9C0080BC7047800000206C0000208400002083
:100EAC007000002088000020740000208C000020BE
:100EBC0078000020900000207C00002080B485B0D9
:100ECC0000AF154B9B69144A43F001039361124B1D
:100EDC009B6903F00103BB60BB680F4BDB690E4AD7
:100EEC0043F08053D3610C4BDB6903F080537B6080
:100EFC007B680A4B5B68FB60FB6823F0E063FB607C
:100F0C00FB6843F08063FB60044AFB68536000BFDE
:100F1C001437BD4680BC70470010024000000140F1
:100F2C0080B584B000AF78607B681B68B3F1804FEC
:100F3C0013D10C4BDB690B4A43F00103D361094B12
:100F4C00DB6903F00103FB60FB68002200211C201D
:100F5C0000F0EBFA1C2000F004FB00BF1037BD467C
:100F6C0080BD00BF0010024080B400AFFEE780B42B
:100F7C0000AFFEE780B400AFFEE780B400AFFEE741
:100F8C0080B400AFFEE780B400AF00BFBD4680BCAC
:100F9C00704780B400AF00BFBD4680BC704780B4C2
:100FAC0000AF00BFBD4680BC704780B500AF00F0FD
:100FBC00C9F900BF80BD000080B500AF024801F048
:100FCC000DF900BF80BD00BFE400002080B400AF6D
:100FDC0000BFBD4680BC704780B582B000AF786062
:100FEC007B68022B29D07B68022B36DC7B68002BBC
:100FFC0003D07B68012B10D02FE000222021194850
:10100C0000F05BFC01224021164800F056FC012246
:10101C008021144800F051FC1FE0012220211148CE
:10102C0000F04BFC002240210E4800F046FC01224F
:10103C0080210C4800F041FC0FE0012220210948DE
:10104C0000F03BFC01224021064800F036FC002257
:10105C008021044800F031FC00BF00BF0837BD46BA
:10106C0080BD00BF0008014080B582B000AF786041
:10107C007B68022B2FD07B68022B3FDC7B68002B1C
:10108C0003D07B68012B13D038E000224FF4807121
:10109C001C4800F012FC01224FF40071194800F0BA
:1010AC000CFC01224FF48061164800F006FC25E090
:1010BC0001224FF48071134800F0FFFB00224FF423
:1010CC000071104800F0F9FB01224FF480610D48CB
:1010DC0000F0F3FB12E001224FF48071094800F09C
:1010EC00ECFB01224FF40071064800F0E6FB0022F5
:1010FC004FF48061034800F0E0FB00BF00BF0837ED
:10110C00BD4680BD0008014080B584B000AF78605A
:10111C00524B1B68002B06D14FF4FA70FFF7F4FD0D
:10112C004E4B01221A604E4B1B68002B10D04C4BBF
:10113C0000221A604B4B1B68002B0CBF01230023B1
:10114C00DBB21A46474B1A604FF4FA70FFF7DCFD1E
:10115C00444B1B68002B0CBF01230023DBB2FB7339
:10116C007B68022B51D07B68022B72DC7B68002BD6
:10117C0003D07B68012B24D06BE0FB7B1A4620212B
:10118C00394800F09AFBFB7B1A464FF480713648C5
:10119C0000F093FB01224021334800F08EFB01222A
:1011AC004FF40071304800F088FB012280212E485A
:1011BC0000F083FB01224FF480612B4800F07DFB93
:1011CC0047E001222021284800F077FB01224FF450
:1011DC008071254800F071FBFB7B1A4640212248A8
:1011EC0000F06BFBFB7B1A464FF400711E4800F0BD
:1011FC0064FB012280211C4800F05FFB01224FF4AC
:10120C008061194800F059FB23E001222021164887
:10121C0000F053FB01224FF48071134800F04DFB9A
:10122C0001224021104800F048FB01224FF40071CC
:10123C000D4800F042FBFB7B1A4680210A4800F067
:10124C003CFBFB7B1A464FF48061074800F035FBF2
:10125C0000BF00BF1037BD4680BD00BF9800002006
:10126C00700000209400002000080140FFF7AEFE43
:10127C000B480C490C4A002302E0D458C4500433E8
:10128C00C4188C42F9D3094A094C002301E01360BD
:10129C000432A242FBD301F0E1FAFFF7F9FB7047ED
:1012AC000000002034000020042900083400002035
:1012BC0030010020FEE7000080B500AF084B1B6832
:1012CC00074A43F010031360032000F023F90F20AA
:1012DC0000F008F8FFF7F2FD0023184680BD00BFB0
:1012EC000020024080B582B000AF7860124B1A68C3
:1012FC00124B1B7819464FF47A73B3FBF1F3B2FB24
:10130C00F3F3184600F03BF90346002B01D0012300
:10131C000EE07B680F2B0AD8002279684FF0FF3063
:10132C0000F003F9064A7B681360002300E00123F8
:10133C0018460837BD4680BD28000020300000202C
:10134C002C00002080B400AF054B1B781A46054BCF
:10135C001B681344034A136000BFBD4680BC704732
:10136C00300000202C01002080B400AF024B1B6821
:10137C001846BD4680BC70472C01002080B485B057
:10138C0000AF78607B6803F00703FB600C4BDB68F5
:10139C00BB60BA684FF6FF031340BB60FB681A02D0
:1013AC00BB68134343F0BF6343F40033BB60044A90
:1013BC00BB68D36000BF1437BD4680BC704700BF0C
:1013CC0000ED00E080B400AF044BDB681B0A03F0B7
:1013DC0007031846BD4680BC704700BF00ED00E017
:1013EC0080B483B000AF0346FB7197F90730002B34
:1013FC000BDBFB7903F01F02064997F907305B09F9
:10140C00012000FA02F241F8232000BF0C37BD4640
:10141C0080BC704700E100E080B483B000AF0346AD
:10142C003960FB7197F90730002B0ADB3B68DAB2A5
:10143C000C4997F907301201D2B20B4483F8002300
:10144C000AE03B68DAB20849FB7903F00F03043B6E
:10145C001201D2B20B441A7600BF0C37BD4680BCC9
:10146C00704700BF00E100E000ED00E080B489B0FF
:10147C0000AFF860B9607A60FB6803F00703FB61AA
:10148C00FB69C3F10703042B28BF0423BB61FB6971
:10149C000433062B02D9FB69033B00E000237B617C
:1014AC004FF0FF32BB6902FA03F3DA43BB681A4010
:1014BC007B699A404FF0FF317B6901FA03F3D94302
:1014CC007B680B40134318462437BD4680BC7047DD
:1014DC0080B582B000AF78607B68013BB3F1807F50
:1014EC0001D301230FE00A4A7B68013B53600F21B3
:1014FC004FF0FF30FFF790FF054B00229A60044B32
:10150C0007221A60002318460837BD4680BD00BF6D
:10151C0010E000E080B582B000AF78607868FFF72B
:10152C002DFF00BF0837BD4680BD80B586B000AF2B
:10153C000346B9607A60FB7300237B61FFF742FFBF
:10154C0078617A68B9687869FFF790FF024697F975
:10155C000F3011461846FFF75FFF00BF1837BD4626
:10156C0080BD80B582B000AF0346FB7197F90730A0
:10157C001846FFF735FF00BF0837BD4680BD80B564
:10158C0082B000AF78607868FFF7A2FF0346184678
:10159C000837BD4680BD000080B48BB000AF7860CA
:1015AC00396000237B6200233B6248E101227B6AA5
:1015BC0002FA03F3FB613B681B68FA691340BB61D9
:1015CC00BA69FB699A4240F037813B685B68A34A71
:1015DC0093425ED0A14A934275D8A14A934258D007
:1015EC009F4A93426FD89F4A934252D09D4A93424E
:1015FC0069D89D4A93424CD09B4A934263D89B4AEC
:10160C00934246D0994A93425DD8122B2AD8122B7A
:10161C0059D801A252F823F09F1600087916000839
:10162C008B160008CD160008D3160008D316000838
:10163C00D3160008D3160008D3160008D3160008DA
:10164C00D3160008D3160008D3160008D3160008CA
:10165C00D3160008D3160008D3160008811600080C
:10166C0095160008824A934213D02CE03B68DB6845
:10167C003B6229E03B68DB6804333B6224E03B6857
:10168C00DB6808333B621FE03B68DB680C333B6272
:10169C001AE03B689B68002B02D104233B6213E0E9
:1016AC003B689B68012B05D108233B627B68FA6978
:1016BC001A6109E008233B627B68FA695A6103E00E
:1016CC0000233B6200E000BFBB69FF2B01D87B68A5
:1016DC0001E07B6804337B61BB69FF2B02D87B6A1A
:1016EC009B0002E07B6A083B9B003B617B691A68AC
:1016FC000F213B6901FA03F3DB431A40396A3B695A
:10170C0001FA03F31A437B691A603B685B6803F0C8
:10171C008053002B00F09080564B9B69554A43F048
:10172C0001039361534B9B6903F00103BB60BB68DE
:10173C00514A7B6A9B08023352F82330FB607B6A68
:10174C0003F003039B000F2202FA03F3DB43FA6856
:10175C001340FB607B68494A93420DD07B68484A32
:10176C00934207D07B68474A934201D1022304E09D
:10177C00032302E0012300E000237A6A02F0030253
:10178C0092009340FA681343FB603B497B6A9B08C9
:10179C000233FA6841F823203B685B6803F480133A
:1017AC00002B06D0384B9A683749BB6913438B60C2
:1017BC0006E0354B9A68BB69DB43334913408B60B9
:1017CC003B685B6803F40013002B06D02E4BDA68E1
:1017DC002D49BB691343CB6006E02B4BDA68BB6920
:1017EC00DB4329491340CB603B685B6803F400334F
:1017FC00002B06D0244B5A682349BB6913434B601A
:10180C0006E0214B5A68BB69DB431F4913404B6010
:10181C003B685B6803F48033002B06D01A4B1A68C4
:10182C001949BB6913430B6006E0174B1A68BB6977
:10183C00DB43154913400B607B6A01337B623B68C9
:10184C001A687B6A22FA03F3002B7FF4AFAE00BF59
:10185C0000BF2C37BD4680BC704700BF0000321063
:10186C0000003110000022100000211000001210A6
:10187C00000011100010024000000140000801405F
:10188C00000C0140001001400004014080B485B000
:10189C0000AF78600B467B807B689A687B8813402E
:1018AC00002B02D00123FB7301E00023FB73FB7BB5
:1018BC0018461437BD4680BC704780B483B000AF67
:1018CC0078600B467B8013467B707B78002B03D0B3
:1018DC007A887B681A6103E07B881A047B681A613A
:1018EC0000BF0C37BD4680BC7047000080B586B089
:1018FC0000AF78607B68002B01D101236CE27B6820
:10190C001B6803F00103002B00F08780924B5B688F
:10191C0003F00C03042B0CD08F4B5B6803F00C030F
:10192C00082B12D18C4B5B6803F48033B3F5803FEA
:10193C000BD1894B1B6803F40033002B6CD07B68F4
:10194C005B68002B68D1012346E27B685B68B3F5CA
:10195C00803F06D1804B1B687F4A43F48033136071
:10196C002EE07B685B68002B0CD17B4B1B687A4AA2
:10197C0023F480331360784B1B68774A23F480235D
:10198C0013601DE07B685B68B3F5A02F0CD1724B24
:10199C001B68714A43F4802313606F4B1B686E4ABB
:1019AC0043F4803313600BE06B4B1B686A4A23F4DF
:1019BC0080331360684B1B68674A23F480231360E1
:1019CC007B685B68002B13D0FFF7CEFC386108E016
:1019DC00FFF7CAFC02463B69D31A642B01D90323D7
:1019EC00FAE15D4B1B6803F40033002BF0D014E0DC
:1019FC00FFF7BAFC386108E0FFF7B6FC02463B691A
:101A0C00D31A642B01D90323E6E1534B1B6803F46F
:101A1C000033002BF0D100E000BF7B681B6803F0A3
:101A2C000203002B63D04C4B5B6803F00C03002BC0
:101A3C000BD0494B5B6803F00C03082B1CD1464BB5
:101A4C005B6803F48033002B16D1434B1B6803F007
:101A5C000203002B05D07B681B69012B01D00123ED
:101A6C00BAE13D4B1B6823F0F8027B685B69DB0035
:101A7C00394913430B603AE07B681B69002B20D07B
:101A8C00364B01221A60FFF76FFC386108E0FFF754
:101A9C006BFC02463B69D31A022B01D903239BE151
:101AAC002D4B1B6803F00203002BF0D02A4B1B6854
:101ABC0023F0F8027B685B69DB00274913430B605A
:101ACC0015E0264B00221A60FFF74EFC386108E047
:101ADC00FFF74AFC02463B69D31A022B01D90323B8
:101AEC007AE11D4B1B6803F00203002BF0D17B68DD
:101AFC001B6803F00803002B3AD07B689B69002B12
:101B0C0019D0174B01221A60FFF72EFC386108E040
:101B1C00FFF72AFC02463B69D31A022B01D9032397
:101B2C005AE10D4B5B6A03F00203002BF0D001204D
:101B3C0000F09AFA1CE00A4B00221A60FFF714FC22
:101B4C0038610FE0FFF710FC02463B69D31A022BF9
:101B5C0008D9032340E100BF0010024000004242BC
:101B6C00800442429E4B5B6A03F00203002BE9D1D6
:101B7C007B681B6803F00403002B00F0A680002395
:101B8C00FB75974BDB6903F08053002B0DD1944B05
:101B9C00DB69934A43F08053D361914BDB6903F0CB
:101BAC008053BB60BB680123FB758E4B1B6803F431
:101BBC008073002B18D18B4B1B688A4A43F48073BB
:101BCC001360FFF7D1FB386108E0FFF7CDFB02464D
:101BDC003B69D31A642B01D90323FDE0814B1B68AD
:101BEC0003F48073002BF0D07B68DB68012B06D1EB
:101BFC007B4B1B6A7A4A43F0010313622DE07B682E
:101C0C00DB68002B0CD1764B1B6A754A23F0010361
:101C1C001362734B1B6A724A23F0040313621CE0B9
:101C2C007B68DB68052B0CD16D4B1B6A6C4A43F04F
:101C3C00040313626A4B1B6A694A43F00103136283
:101C4C000BE0674B1B6A664A23F001031362644B7B
:101C5C001B6A634A23F0040313627B68DB68002B66
:101C6C0015D0FFF781FB38610AE0FFF77DFB0246D8
:101C7C003B69D31A41F28832934201D90323ABE07A
:101C8C00574B1B6A03F00203002BEED014E0FFF756
:101C9C006BFB38610AE0FFF767FB02463B69D31A1E
:101CAC0041F28832934201D9032395E04C4B1B6AD5
:101CBC0003F00203002BEED1FB7D012B05D1484B29
:101CCC00DB69474A23F08053D3617B68DB69002BC7
:101CDC0000F08180424B5B6803F00C03082B61D051
:101CEC007B68DB69022B46D13F4B00221A60FFF761
:101CFC003BFB386108E0FFF737FB02463B69D31A20
:101D0C00022B01D9032367E0354B1B6803F00073EA
:101D1C00002BF0D17B681B6AB3F5803F08D1304BA8
:101D2C005B6823F400327B689B682D4913434B603E
:101D3C002B4B5B6823F474127B68196A7B685B6AB3
:101D4C000B43274913434B60274B01221A60FFF7C3
:101D5C000BFB386108E0FFF707FB02463B69D31A1F
:101D6C00022B01D9032337E01D4B1B6803F00073D2
:101D7C00002BF0D02FE01C4B00221A60FFF7F4FA76
:101D8C00386108E0FFF7F0FA02463B69D31A022BE0
:101D9C0001D9032320E0124B1B6803F00073002BC6
:101DAC00F0D118E07B68DB69012B01D1012313E032
:101DBC000B4B5B68FB60FB6803F480327B681B6A2F
:101DCC009A4206D1FB6803F470127B685B6A9A42F4
:101DDC0001D0012300E0002318461837BD4680BD12
:101DEC0000100240007000406000424280B584B098
:101DFC0000AF786039607B68002B01D10123D0E003
:101E0C006A4B1B6803F007033A689A4210D9674B78
:101E1C001B6823F0070265493B6813430B60634B57
:101E2C001B6803F007033A689A4201D00123B8E01B
:101E3C007B681B6803F00203002B20D07B681B68B7
:101E4C0003F00403002B05D0594B5B68584A43F44C
:101E5C00E06353607B681B6803F00803002B05D01C
:101E6C00534B5B68524A43F460535360504B5B686E
:101E7C0023F0F0027B689B684D4913434B607B68F1
:101E8C001B6803F00103002B40D07B685B68012BBF
:101E9C0007D1474B1B6803F40033002B15D10123EA
:101EAC007FE07B685B68022B07D1414B1B6803F01A
:101EBC000073002B09D1012373E03D4B1B6803F029
:101ECC000203002B01D101236BE0394B5B6823F03B
:101EDC0003027B685B68364913434B60FFF744FA97
:101EEC00F8600AE0FFF740FA0246FB68D31A41F2A9
:101EFC008832934201D9032353E02D4B5B6803F0E6
:101F0C000C027B685B689B009A42EBD1274B1B68E9
:101F1C0003F007033A689A4210D2244B1B6823F053
:101F2C00070222493B6813430B60204B1B6803F0EC
:101F3C0007033A689A4201D0012332E07B681B68A0
:101F4C0003F00403002B08D0194B5B6823F4E06208
:101F5C007B68DB68164913434B607B681B6803F096
:101F6C000803002B09D0124B5B6823F460527B688A
:101F7C001B69DB000E4913434B6000F021F802464D
:101F8C000B4B5B681B0903F00F030A49CB5C22FA6D
:101F9C0003F3094A1360094B1B681846FFF7A2F9B3
:101FAC00002318461037BD4680BD00BF00200240FC
:101FBC0000100240D8280008280000202C00002027
:101FCC0080B487B000AF0023FB600023BB6000230C
:101FDC007B6100237B6000233B611E4B5B68FB60D5
:101FEC00FB6803F00C03042B02D0082B03D027E072
:101FFC00194B3B6127E0FB689B0C03F00F03174A5E
:10200C00D35C7B60FB6803F48033002B10D0114B46
:10201C005B685B0C03F00103114AD35CBB607B680B
:10202C000D4A02FB03F2BB68B2FBF3F37B6104E0E5
:10203C007B680C4A02FB03F37B617B693B6102E02A
:10204C00054B3B6100BF3B6918461C37BD4680BC45
:10205C00704700BF0010024000127A00E828000808
:10206C00F828000800093D0080B485B000AF786006
:10207C000A4B1B680A4AA2FB03235B0A7A6802FB21
:10208C0003F3FB6000BFFB685A1EFA60002BF9D10A
:10209C0000BF00BF1437BD4680BC7047280000202D
:1020AC00D34D621080B582B000AF78607B68002B96
:1020BC0001D1012341E07B6893F83D30DBB2002B6A
:1020CC0006D17B68002283F83C207868FEF728FF55
:1020DC007B68022283F83D207B681A687B68043396
:1020EC001946104600F056FA7B68012283F8462008
:1020FC007B68012283F83E207B68012283F83F2015
:10210C007B68012283F840207B68012283F8412000
:10211C007B68012283F842207B68012283F84320EC
:10212C007B68012283F844207B68012283F84520D8
:10213C007B68012283F83D20002318460837BD46F2
:10214C0080BD000080B485B000AF78607B6893F8E8
:10215C003D30DBB2012B01D0012335E07B6802223C
:10216C0083F83D207B681B68DA687B681B6842F04B
:10217C000102DA607B681B68164A934209D07B68BF
:10218C001B68B3F1804F04D07B681B68124A9342E2
:10219C0011D17B681B689B6803F00703FB60FB682D
:1021AC00062B10D07B681B681A687B681B6842F092
:1021BC0001021A6007E07B681B681A687B681B6861
:1021CC0042F001021A60002318461437BD4680BC49
:1021DC00704700BF002C01400004004080B584B063
:1021EC0000AF78607B681B68DB68FB607B681B68F2
:1021FC001B69BB60BB6803F00203002B20D0FB689B
:10220C0003F00203002B1BD07B681B686FF00202EB
:10221C001A617B6801221A777B681B689B6903F043
:10222C000303002B03D0786800F098F905E0786878
:10223C0000F08BF9786800F09AF97B6800221A7725
:10224C00BB6803F00403002B20D0FB6803F00403ED
:10225C00002B1BD07B681B686FF004021A617B6833
:10226C0002221A777B681B689B6903F44073002B6E
:10227C0003D0786800F072F905E0786800F065F931
:10228C00786800F074F97B6800221A77BB6803F059
:10229C000803002B20D0FB6803F00803002B1BD095
:1022AC007B681B686FF008021A617B6804221A773E
:1022BC007B681B68DB6903F00303002B03D0786891
:1022CC0000F04CF905E0786800F03FF9786800F010
:1022DC004EF97B6800221A77BB6803F01003002BC1
:1022EC0020D0FB6803F01003002B1BD07B681B680D
:1022FC006FF010021A617B6808221A777B681B68E2
:10230C00DB6903F44073002B03D0786800F026F9E6
:10231C0005E0786800F019F9786800F028F97B6816
:10232C0000221A77BB6803F00103002B0CD0FB686A
:10233C0003F00103002B07D07B681B686FF00102D0
:10234C001A617868FEF7CAFCBB6803F08003002BA7
:10235C000CD0FB6803F08003002B07D07B681B6854
:10236C006FF080021A61786800F06FFABB6803F0B6
:10237C004003002B0CD0FB6803F04003002B07D06C
:10238C007B681B686FF040021A61786800F0F8F8FF
:10239C00BB6803F02003002B0CD0FB6803F0200378
:1023AC00002B07D07B681B686FF020021A617868DD
:1023BC0000F042FA00BF1037BD4680BD80B584B036
:1023CC0000AF786039600023FB737B6893F83C3076
:1023DC00012B01D10223B4E07B68012283F83C205D
:1023EC007B68022283F83D207B681B689B68BB607E
:1023FC00BB6823F07703BB60BB6823F47F43BB60EF
:10240C007B681B68BA689A603B681B68B3F5005F11
:10241C003ED0B3F5005F00F28780B3F5805F00F02B
:10242C008680B3F5805F7FD8702B1AD0702B7BD849
:10243C00602B50D0602B77D8502B3CD0502B73D8BE
:10244C00402B58D0402B6FD8302B64D0302B6BD80E
:10245C00202B60D0202B67D8002B5CD0102B5AD0AF
:10246C0062E07B6818683B6899683B685A683B680F
:10247C00DB6800F06AF97B681B689B68BB60BB6813
:10248C0043F07703BB607B681B68BA689A604FE0C7
:10249C007B6818683B6899683B685A683B68DB68DE
:1024AC0000F053F97B681B689A687B681B6842F4E0
:1024BC0080429A603CE07B6818683B6859683B68CE
:1024CC00DB681A4600F0CAF87B681B685021184676
:1024DC0000F021F92CE07B6818683B6859683B6870
:1024EC00DB681A4600F0E8F87B681B686021184628
:1024FC0000F011F91CE07B6818683B6859683B6870
:10250C00DB681A4600F0AAF87B681B684021184665
:10251C0000F001F90CE07B681A683B681B681946EF
:10252C00104600F0F8F803E00123FB7300E000BF55
:10253C007B68012283F83D207B68002283F83C20D5
:10254C00FB7B18461037BD4680BD80B483B000AF0E
:10255C00786000BF0C37BD4680BC704780B483B038
:10256C0000AF786000BF0C37BD4680BC704780B4AC
:10257C0083B000AF786000BF0C37BD4680BC70479D
:10258C0080B483B000AF786000BF0C37BD4680BC10
:10259C007047000080B485B000AF786039607B680C
:1025AC001B68FB607B682B4A934207D07B68B3F1B6
:1025BC00804F03D07B68284A934208D1FB6823F0F4
:1025CC007003FB603B685B68FA681343FB607B68D5
:1025DC00204A934207D07B68B3F1804F03D07B68CD
:1025EC001D4A934208D1FB6823F44073FB603B689F
:1025FC00DB68FA681343FB60FB6823F080023B68DE
:10260C005B691343FB607B68FA681A603B689A68E5
:10261C007B68DA623B681A687B689A627B680D4A51
:10262C00934203D13B681A697B681A637B68012269
:10263C005A617B681B6903F00103002B05D07B6892
:10264C001B6923F001027B681A6100BF1437BD4679
:10265C0080BC7047002C01400004004080B487B05F
:10266C0000AFF860B9607A60FB681B6A7B61FB683D
:10267C001B6A23F00102FB681A62FB689B693B61D1
:10268C003B6923F0F0033B617B681B013A69134300
:10269C003B617B6923F00A037B617A69BB68134356
:1026AC007B61FB683A699A61FB687A691A6200BFC0
:1026BC001C37BD4680BC704780B487B000AFF86053
:1026CC00B9607A60FB681B6A7B61FB681B6A23F04C
:1026DC001002FB681A62FB689B693B613B6923F43F
:1026EC0070433B617B681B033A6913433B617B6915
:1026FC0023F0A0037B61BB681B017A6913437B61E8
:10270C00FB683A699A61FB687A691A6200BF1C37E8
:10271C00BD4680BC704780B485B000AF786039602E
:10272C007B689B68FB60FB6823F07003FB603A6876
:10273C00FB68134343F00703FB607B68FA689A60FD
:10274C0000BF1437BD4680BC704780B487B000AF63
:10275C00F860B9607A603B60FB689B687B617B6961
:10276C0023F47F437B613B681A027B681A43BB6886
:10277C0013437A6913437B61FB687A699A6000BFE3
:10278C001C37BD4680BC704780B485B000AF786004
:10279C0039607B6893F83C30012B01D1022341E076
:1027AC007B68012283F83C207B68022283F83D2061
:1027BC007B681B685B68FB607B681B689B68BB6005
:1027CC00FB6823F07003FB603B681B68FA681343DB
:1027DC00FB607B681B68FA685A607B681B68144A4C
:1027EC00934209D07B681B68B3F1804F04D07B689F
:1027FC001B68104A93420CD1BB6823F08003BB606A
:10280C003B685B68BA681343BB607B681B68BA683B
:10281C009A607B68012283F83D207B68002283F854
:10282C003C20002318461437BD4680BC704700BFBF
:10283C00002C01400004004080B483B000AF7860ED
:10284C0000BF0C37BD4680BC704780B483B000AF6E
:10285C00786000BF0C37BD4680BC704770B5002651
:10286C000C4D0D4C641BA410A64209D100F022F8AB
:10287C0000260A4D0A4C641BA410A64205D170BD5B
:10288C0055F8043B98470136EEE755F8043B98475A
:10289C000136F2E7FC280008FC280008FC28000898
:1028AC000029000803460244934200D1704703F804
:1028BC00011BF9E7F8B500BFF8BC08BC9E46704791
:0C28CC00F8B500BFF8BC08BC9E46704781
:1028D80000000000000000000102030406070809C8
:1028E80002030405060708090A0B0C0D0E0F101049
:0428F80001020000D9
:0428FC00310100089E
:042900000D010008BD
:1029040000100140000801400008014000200010B0
:102914000020000002000000070000000200000088
:10292400050000000100000000127A001000000001
:04293400010000009E
:040000050800127964
:00000001FF
